:20000000483F0020F548000001CA011001CA011001CA011001CA011001CA011001CA0110D4
:1C00200001CA011001CA011001CA011001CA011001CA011001CA01103FCA011082
:20003C00F8B50D46EEB2290824BF26494D40264BB400195985EA01020240C2F3006C234A1B
:20005C0000EA05078143FF323A4000F4E0270A43B7F5E02F01D1510E15D300F4E0215CEAC8
:20007C00010710D002F4E027B7F5A02707D0B7F5803704BF22F4003242F4A02203E022F4D6
:20009C00803242F4C0221A51114CC10D04D3A4F18001C5F380528A55000E11D300F01AF89A
:2000BC00290E03D201210022B14002E00121B1400A46503423688B431A43226000F00EF8EC
:2000DC00F8BDC046006000A000100840007F077F80200240DFF800F049C10110DFF800F061
:0400FC0019C2011014
:200100003C000000000000000000000034010000000000000000000001000000000000006D
:1C01200000000000000000000000000001000000000000000800000000000000BA
:20013C00340000000000000000000000680100000000000000000000010000000000000005
:14015C00010000000000000000000000080000000000000086
:2001700030000000000000000000000098010000040000000000000001000000FFFFFFFFA5
:10019000FF00000001000000080000000000000057
:2001A0002C0000000000000000000000C4010000040000000000000001000000FFFFFFFF4D
:0C01C000FFFFFFFF08000000000000002F
:2001CC0034050000E401000099A1011095A70110A5C2011009B2011045B80110000000000B
:0801EC00000000002F000000DC
:2001F400280000000000000000000000140200000000000000000000FFFFFFFF00000000B1
:080214000800000000000000DA
:20021C00300500003002000069C201106DC101101FC2011095BA011000000000000000008E
:04023C002D00000091
:20024000300500005402000075C20110A9B601109DBF011049B601100000000000000000DE
:040260002E0000006C
:200264002400000000000000000000008002000000000000000000000000000008000000CC
:040284000000000076
:20028800240000000000000000000000A40200000000000000000000000000000800000084
:0402A8000000000052
:2002AC00240000000000000000000000C8020000000000000100000000000000080000003B
:0402CC00000000002E
:2002D00000000000B80D002004000000000000000000000020000000700100003000000064
:2002F0001C020000E40D00200400000000000000000000000C000000300400001800000063
:2003100040020000F00D0020040000000000000000000000240000004804000018000000E2
:2003300000000000F80D002004000000000000000000000010000000A00100002C000000A7
:20035000CC010000000E0020040000000000000000000000200000006402000024000000E4
:20037000FFFFFFFF200E002004000000000000000000000028000000880200002400000049
:20039000FFFFFFFF500E0020040000000000000000000000580000003C0100003400000006
:2003B000FFFFFFFF580E00200400000000000000000000001000000060040000180000001B
:2003D000FFFFFFFF600E00200400000000000000000000001C000000AC0200002400000091
:2003F000FFFFFFFF680E002004000000000000000000000038000000F40100002800000002
:20041000FFFFFFFF700E002004000000000000000000000054000000000100003C0000009D
:1804300018000000000000000000000040040000080000000000000050
:1804480018000000000000000000000058040000080000000000000020
:18046000180000000000000000000000700400000800000000000000F0
:08047800010000003C6F0000D0
:0404800006F0C8BA00
:040484000100000073
:0404880000000E0062
:04048C0000000F005D
:040490003200000036
:040494000100000063
:04049800C00D002073
:04049C00000200005A
:0404A0000000000058
:0404A40001CA011078
:0404A8000000000050
:0404AC00000000004C
:0404B0000800000040
:0404B4000000230021
:0404B80058100020B8
:0404BC00010000003B
:0404C000080E002002
:0404C400080000002C
:0404C8000000000030
:0404CC00000000002C
:0404D0000000000028
:0404D4000000000024
:0404D8000000000020
:0404DC00010000001B
:0404E000C010002028
:0404E400060000000E
:0404E800010000000F
:0404EC00C00F00201D
:0404F0000000000008
:0404F4000000000004
:0404F80000020000FE
:0404FC0000000000FC
:02050000704742
:020502002900CE
:020504000100F4
:020506002500CE
:020508002D00C4
:02050A002E00C1
:02050C002F00BE
:02050E000100EA
:0105100001E9
:08051400030000001C6F000051
:08051C000000000000000000D7
:0405240000000100D2
:0405280000000300CC
:04052C0087C401106F
:04053000380500008A
:040534003805000086
:0405380000000000BF
:04053C00900000002B
:040540009000000027
:0405440000000000B3
:04054800080E002079
:04054C006B660000DA
:040550002000000087
:04055400E86E00004D
:04055800606E0000D1
:04055C000DC30110BA
:0405600073570000CD
:04056400F35C000044
:0405680099C801101D
:04056C009BC8011017
:040570000000000087
:040574005F6E0000B6
:04057800B06D000062
:04057C00C86D000046
:04058000986D000072
:0205840008006D
:0205860009006A
:02058800010070
:02058A0000006F
:01058C00016D
:040590000000000067
:040594000000000063
:04059800000000005F
:04059C00000000005B
:0405A000956A000058
:0405A400D94F00002B
:0405A800395C0000BA
:0405AC00D155000025
:0405B0001D540000D6
:0405B40001560000EC
:0405B800253C0000DE
:0405BC005B68000078
:0405C000D53F000023
:0405C40011C8011049
:0405C80021C8011035
:0405CC000800000023
:0405D0002400000003
:0405D400180000000B
:0405D80028000000F7
:0405DC0020000000FB
:0405E0003C000000DB
:0405E4000C00000007
:0405E80034000000DB
:2005EC002DE9FE43AF4C0F460646F80B80F03581B80880F0C7806069B90F67D2A07A002850
:20060C0048D1380948D30025657001262672284602F0F5FFA44806F021F9A4492A4604F1FE
:20062C004C0006F01EFA607901281AD1A079C0B99F4E306870B105F0A5FF6169236A3268A5
:20064C00401A000BE061C018B0EBC21F28BF256208D2206204F1C8004FF0005105F038FF51
:20066C0031E0667104F1380140F60900088094F8450000F0F00040F0010084F84500658702
:20068C0094F8440000F0F00084F84400E563894E316018E0380914D2B80BC0F0FB8004F12C
:2006AC00280006F0E9F9061C08D0706830B17568F068B6F91C1082A20CCAA84727F4005710
:2006CC00E8E00020A07227F00807E3E0D8B1042005F0AEFCB8B105F055FFA061616981429F
:2006EC0026BF401A401E401A000BF060F06840F6C41100F58D708142F06003D340F2EE221C
:20070C00824200D9F1600025D6F818C06561BCF1000F0FD094F8450010F00F0F0AD1708CED
:20072C0040F60901814205D167A20CCA30466FF48071E047604904F14C002A4606F091F92A
:20074C00A07950B10220ADF80000684605F0AAFBA571BDF80800A4F8A000012060702079CB
:20076C00A846401C2071192084F8078005F0F0FF756925B156A20CCA30464146A84727F0ED
:20078C00005787E004F13009484606F075F9061C5AD004F037FC4FF00008B269C6F8188044
:2007AC007068B8B1F07F42F00202002300F00700401E07D0401E03D0801E06D146A002E08A
:2007CC0047A000E048A090E80C007568F068B6F91C10A847FFF786FC0546B4F93600401CD9
:2007EC006FF31F30E086206B1F30017801F07F010170484605F00CFE2846FFF777FCF068E5
:20080C00B0F99410B4F9362091421DD1217801291AD090F8965095B9056885B1E1680968F5
:20082C00B1F1FF3F10D0254909687030B5FBF1F106F0F6F9F068703006F0EEF904E080F8C5
:20084C009680404603F092FB484606F015F927F0020708B147F002071CE0FFF743FC01464D
:20086C0004F12C0006F008F90646B5690846FFF73DFCA8080CD25EB1B069A843B0617068E3
:20088C0030B12A46F068B6F91C1075680023A84727F4804727B104F1C800394605F018FED8
:2008AC00BDE8FE83900800207D3A0000615D0000EC1B00200010044031220000346F000068
:2008CC000000000020000000000000000000000200000000000000040000000000000010D6
:2008EC00000000000000004000000000000000202DE9FE430646DFF8DC82DFF8DC92B27845
:20090C000024101C00F03581801E00F00D81401E012840F2E180801E00F0A880401E7BD040
:20092C00401E59D0083800F04681801E40F046814546B08895F83E70ADF80000052F45D0AC
:20094C0001208DF80A0005F1CC0006F097F895F83E0001281BD0042819D0032806D0022875
:20096C0004D0F28831897089B38907E0B5F84020B5F84210B5F84400B5F84630ADF8022060
:20098C00ADF80410ADF80600ADF8083020E0B5F84000F1888842D8BF081CADF802003189BE
:2009AC00B5F842008842D8BF081CADF804007189B5F844008842D8BF081CADF80600B5F846
:2009CC004630B0898342D8BF031CDDE78DF80A40684605F05BFFF1E0454605F1F00006F019
:2009EC004DF87078002840F0E980F088E882308928837089688305F1CC0005F0A1FE002855
:200A0C0040F0DC80AB6A002B00F0D8801B68E88A298B6A8B9847D1E0B08805F02EF94546A9
:200A2C002146062205F1380002F0B0FDEC822C836C83B079687305F1CC0006F01FF805F179
:200A4C00F00006F01BF801244FF6FF706F79A8824FB9B079082814BF04200520A8702046AB
:200A6C0005F0FAFCAAE00320A870A7E0707858BB311D0A68454605F138000260898881804B
:200A8C000627AF707089A882F089E882308A2883708A6883F0784446287394F83E0001282E
:200AAC0018BF02280AD11F2004F066F84FF47A71024604F1CC00514304F018FAF078728989
:200ACC00311D04F0A3F97BE0707831286FD14D4604202870204623E07778002F67D14546B7
:200AEC00698AA878032A13D02A796F7921B9012A14BF6C712C7106E0174304D005F1A80038
:200B0C0004F0F4F9A878072814BF0420062007E0062807D02879002808BF0324DAD002200D
:200B2C00A8704DE00724D5E77078751C00283ED14246F7789078D1799FB9022816D00728ED
:200B4C0014D0062802D1517901290FD103280DD002F1A80005F0F4FD40B9012005F07CFCC0
:200B6C0004E08732204603F0ADFB28702878F0B924E07078D8B945460220102105F148024F
:200B8C0004F0AEFB0320102105F1580204F0A8FBF61C05F12C00B7883168878005F16802FE
:200BAC0001600120A979A87003F08CFB40B108204D46287004E0B08805F05CFE012C06D140
:200BCC004546686A18B1016809B1A8788847BDE8FE83C0467005002072050020F8B5A0F23A
:200BEC00013517460E46022D40F20C818649874C874A884B2D1F0F2D04D9143D4AD0AD1E33
:200C0C001CD011E0DFE815F0BA00B500EB00DB00AE00A700FE009F009800100010009000B0
:200C2C0086007A006F006200282880F2EB80022E40F0E880398804F01BFAF8BD012E40F004
:200C4C00E1800A469078012800F0DC80D1783878D07081B9002800F0D5801078012800F0D9
:200C6C00A080042800F09D80062800F09A80052800F09780F8BD3878002840F0C38010781B
:200C8C00032800F09980072800F09680052800F09380F8BD012E40F0B5803878012840F05D
:200CAC00B180254605F1F00005F04AFD002840F0A98004F13E01002002F0C6FD002840F088
:200CCC00A18004F1CC0005F0D9FEF8BD022E40F0998038880A28C0F29580B0F5486F00F324
:200CEC009180114614E0022E40F08C803888B0F5FA7F80F2878011460880F8BD022E40F0D5
:200D0C008180388806287DDBB0F5486F7ADC1946891CF1E7022E75D13888062872DBB0F59C
:200D2C00486F6FDC1946E7E7012E6BD13878062868DA1146891F0CE0012E63D138780428C3
:200D4C0060DA093105E0012E5CD13878082859DA08310870F8BD012E54D13878042851DAFE
:200D6C00C91DF6E7012E4DD1387804284ADC891DEFE7022E46D138881031BDE7012E41D1AC
:200D8C000A46D07801283DD091783878907061B9002837D01078012803D0042818BF0528C3
:200DAC0030D1012005F058FBF8BD387850BB1078022818BF052825D105F06AFCF8BD254626
:200DCC0000211F2205F18704204602F0DFFB39463246204602F0E0F80020EE710EE02546F3
:200DEC0000211F2205F16804204602F0CFFB39463246204602F0D0F80120AE7131462246CB
:200E0C0003F060FAF8BDC0467205002070050020B4050020B00500202DE9F04F0128ADF1C8
:200E2C00140D40F0F280DFF81492D9F8DC00012840F0E9800220C9F8DC0005F0E9FE0290CA
:200E4C00012003F0C7FC20B101210646C9F8DC10D5E005F0D9FE03906E484FF00008C0F8FA
:200E6C000080012005F0E4F8012818BFCDF8008004D1404603F002F90120009066486E4C4D
:200E8C00C0F800801934D4F8FF0F112005F03AFD00280CBF46460126102005F033FD08B1D6
:200EAC0046F002060F2005F02DFD08B146F004060B2005F027FD30B1584800685849006B68
:200ECC000246088890470A2005F01CFD0028404618BF01204FF0805B0BF5DC7528B12868A5
:200EEC005049006B0246088890474F480127076028688069014646F0200088474B4807602E
:200F0C0005F0FAFC00F001010191400815D2484805F057FC8246BAF1040FF8D0BAF1010F46
:200F2C0006D1DBF8D801406802464148032190474049086820F003000860404600F080F84C
:200F4C002868D4F8FF1F806B8047019801280ED0BAF1010F06D1DBF8D8014068024634480F
:200F6C00394690473349086840F0030008602A480760286840690146304688470B2005F0CA
:200F8C00C1FC28B128682649C06A0246088890470A2005F0B7FC28B128682249C06A0246BF
:200FAC0008889047204807600322C9F8DC201F4BC3F800802868406B014630468847012878
:200FCC00F8D1042003F006FC124807601A48D4F8FF1F01688909FCD30098012802D138463A
:200FEC0003F04CF805F082FC082003F0F3FB06460398C9F8DC7005F003FE02F05BFF029862
:20100C0005F0FAFD02E0042600E00126304605B0BDE8F08F0C40094000022243B8010010B1
:20102C002E6D00002A6D00002820086080010443004003402422084014100940A00C0020B0
:20104C002DE9F84F82467A48DFF8D89135380068800880F0D88004F05DFD054678480830A7
:20106C00D0F8008000244FEA2876761C5FEA98500AD2C5F13E0015F10A0F4FEAE000D8BFBF
:20108C0008208642B8BF061C634FD7F87C01C0F3046005F08FFB83463868C0F3044005F0D2
:2010AC0089FB06EB0B020090162A05DA12F10A0FB8BF6FF0090200E01522584B584F02F0A3
:2010CC001F0141F4F8511980396811F0030F18BF0124C90828BF44F00204BAF1000F18BF9A
:2010EC0044F00404494691F90730EB1A052B04DA8B79A34208BF888864D0DFF82CE10F2D31
:20110C00A5F10F0C25DB0CEB0513A3F1F00C4FEA2C27072F88BF07273E46062E88BF062611
:20112C005EF82600042303EB86037646F3581B1A03F0FF06E00824BFC3F307200644A008BB
:20114C0024BFC3F307400644600828BF06EB136601E0002637465EF827E0E0080EF0FF03D7
:20116C0024BFCEF307200344A00824BFCEF307400344600828BF03EB1E630098B6B2ACEB22
:20118C0007277E43801A06F1800603EB1623D8BF0120342208F0FF0742437A43B2FBF3F038
:2011AC004FF6FF72824238BF101C802D80B2888005DA15F1800FB8BF6FF07F0500E07F254D
:2011CC00CD718C71194A12681F280A604FF0000208D340F2FF11814206D24008521C8142C8
:2011EC00FBD301E01F208880124F11490F38000942EAC00247EA0200C1F8FB0F0026C1F81F
:20120C00FF6FBDE8F88F0D4F0B4E494608203760891D0870BDE8F88F3C1100506E62084026
:20122C0024220840E41B00209C130050082009403500094000E7A48030100940FDFDA400D5
:20124C00AC3F00502DE9F0411C4615468C4208BF854282BF00230022E5E0002C08BF002D7C
:20126C000AD100290EBF00286FF000006FF0000100F0E1F8BDE8F0815FF000085FF0000E17
:20128C00002C08BF8D429CBF2C1C0025070C47EA01470E0CB44208BFBD429EBF5FEA044468
:2012AC0044EA15445FEA0545070A47EA01670E0AB44208BFBD429EBF5FEA042444EA156415
:2012CC005FEA0525470847EAC1774E08B44208BFBD4200F29380870847EA81778E08B4427C
:2012EC0008BFBD427CD8C70847EA4177CE08B44208BFBD4266D8070947EA01770E09B4427A
:20130C0008BFBD4250D8470947EAC1674E09B44208BFBD423AD8870947EA81678E09B442CF
:20132C0008BFBD4224D8C70947EA4167CE09B44208BFBD420DD8E60146EA5566EF01B14209
:20134C0008BFB84201D3C01BB14158EB08085EEB0E0EA60146EA95664FEA8517B14208BF06
:20136C00B84201D3C01BB14158EB08084EEB0E0E660146EAD5666F01B14208BFB84201D354
:20138C00C01BB14158EB08084EEB0E0E260146EA15762F01B14208BFB84201D3C01BB14165
:2013AC0058EB08085EEB0E0EE60046EA5576EF00B14208BFB84201D3C01BB14158EB0808F1
:2013CC004EEB0E0EA60046EA9576AF00B14208BFB84201D3C01BB14158EB08084EEB0E0E1F
:2013EC00660046EAD5766F00B14208BFB84201D3C01BB14158EB08085EEB0E0EA14208BFDA
:20140C00A84201D3401BA14158EB08085EEB0E0EA34208BFAA423EBF2D0A45EA0465240A7B
:20142C0089D3734642461E4617460B46024631463846BDE8F08170472DE9F843814605F0DA
:20144C004FFA002100B901216B4E30680028FCD06C4D01242D1DEF6A346009B105F046FAF2
:20146C00DFF89881C7F3072008F1BC01086005F037FA002100B9214630680028FCD02F68E7
:20148C00346009B105F032FAC7F38440C8F8C00005F026FA0146002001B920460146306858
:2014AC000028FCD0ED69346009B105F01FFAC5F38120C8F8D000B9F5C061C8F8B81000F04A
:2014CC00968098F8D80068B9C8F8D410D8F8C000C8F8C800D8F8BC70C8F8C470D8F8D060B5
:2014EC00C8F8CC60D8F8D410D8F8BC60002954BF02206FF00100454605F1C8031A6801EBDC
:20150C0041014018411000EB917002EBA0021A60D5F8C810C5F8C46000291CDD1E293DDDD6
:20152C00D5F8CC0030B93429B4BF15391E21C5F8C81025E02A29BABFD5F8C8000B381E2044
:20154C00C5F8C800D5F8C4003F28B4BF401C3F20C5F8C4001FE0D5F8CC00032812D011F1AC
:20156C000B0FC6BFD5F8C8000B30201CC5F8C800D5F8C4000028CCBF401E0020C5F8C400EC
:20158C00032009E011F1150FC6BFD5F8C8001530201CC5F8C8000020C5F8CC00B5F8C400D3
:2015AC00174E30214FF47F4208230090304603F0A5F8009404214FF400321123304603F0D9
:2015CC009DF8B5F8C80004214FF4F80212230090304603F093F8B5F8CC0020214FF440623B
:2015EC000A230090304603F089F8BDE8F883002088F8D800BDE8F88300800C40A00C0020E8
:20160C0000A00C4000A00C402DE9F04FADF1840D00F07AFD03F04EF80026012804D104F0AA
:20162C007FFE022808BF012658490868C0F38150012806D151F80C0C0127010E07FA01F0EA
:20164C0006435348007804F04FFB524D2C46286038B1FF2204F1400107467F1E01F8012BFC
:20166C00FBD14D4909684FF0000901F0FF02FE2A1BD0DFF824C101F0FF074A460123FF2FA9
:20168C000CD0B8427FD903FA07F73E427BD101F0FF0147EA0909611881F840205CF8041F4C
:2016AC00521C01F0FF07FE2FE9D1092001F088F83948002124220823606001A805F098FA35
:2016CC004FF0010804F1240001AA8DF81C80414605F08AFA236843B3002794354FF0040B12
:2016EC00BA4608FA07F0064219D119EA000F04BF07F0FF0141F4C04105D0E019264990F8EC
:20170C00400051F820102548FEF792FCF8B24FF0FF3104F0B7FC2368C5F800A001E0C5F8CE
:20172C0000B07F1C2D1D9F42DBD30AA800213022082305F055FA0025FF2010210AAB129019
:20174C00174A009504F1080005F046FA16A828220823294605F03CFA04F1600016AA1C95C2
:20176C0010491D952B4605F02FFA0F4951F80D0C20F4F85040F4005041F80D0C4746C1F891
:20178C00FF7F0A4E376021B0BDE8F08FB43F0050F51B0020F8190020E06D0000007FC7673D
:2017AC00AD600000B14800000D300940080009402DE9F843674C04F1240005F05DF915467D
:2017CC000E460090FEF78EFC05F001078146B6F1FF3F0CD1A06A20B9B4F93600401C06B23A
:2017EC0002E0A06AB0F91C60002084F8A300304604F096F80326002800F09B80A16ADFF857
:20180C004081814269D0009FB8422ED03FB100990A68904209D0096800290091F7D1832E1E
:20182C0041D04846FEF762FC3DE004F1A40004F089FB00980168AA0802D20A6802600846D3
:20184C00002202600091009818B94846FEF74EFC28E0C17F41F00401C177684604F0D8FD04
:20186C000146404603F0EEFCEDE704F1A40004F069FBA8083ABF606A0068002060624846A2
:20188C00FEF734FC0099C87F40F00400C877684604F0BEFD0146404603F0D4FC009808B186
:2018AC00A808EFD28326E07988B9207A012843D0244804F0D3FF022104F1C80004F008FE86
:2018CC006078012838D0204804F0C8FF34E004F1C800022104F0FCFD2EE0A90803D3616A8F
:2018EC00009100266662C27F0121B9401143C17705F08AF90446002F14BF1448144804F005
:20190C00D1FA4846FEF7F2FBA80801D3009820B9204605F075F983260EE0C17F41F00401B5
:20192C00C177684604F074FD0146404603F08AFCECE74846FEF7DAFB3046BDE8F883C04643
:20194C00C0080020ED050000692900000100020401000104900800202DE9FC415E4C574DA9
:20196C00574EDFF860815A4F94F8E410481E0B2861D8DFE800F07B2C430623430623430684
:20198C007664042907D001220A2945F8212C14BF0220032004E02021012045F8211C02465D
:2019AC0084F8E200002045F8390C0827C5F8FF7FC5F8F37F45F8392CBDE8FC81052914BFBD
:2019CC0009200620002584F8E400356070E094F8E1700120383D002FC5F81B0004BF0620DF
:2019EC00002102D00021F160032084F8E400032045F8010C31603068800859D294F8E4003A
:201A0C00012503280DD00021404660220523009102F074FE94F8E400062814BF0A20072084
:201A2C00D1E702200090002160220523404602F065FE0420C7E705F0C3F8BDE8FC8122497B
:201A4C00002622480E60012505600E2000F04EFE022003F057FD84F8E45084F8E360BDE80A
:201A6C00FC81002038600C2578601FE01948006800680146202088472C3D41F61D560F2054
:201A8C0000214FF4C072072345F8010C4046C5F803600225009502F031FE404600214FF4C3
:201AAC00C072072303F008F80120386084F8E45004F1780005F0B0F8BDE8FC8139400C4071
:201ACC0038600C4000A00C402C500C4004800C4034600C40A0010010A00C00202DE9F84FD8
:201AEC009A4693460E468146FEF7FCFA514C0090B4F93610B4F934000AAF401A40F6F87168
:201B0C000140082980F28780B4F93400401C6FF31F30A086B4F9348004F0F4F9054609F133
:201B2C00700004F00FFAAE6085F81EB0C5F804A0A5F81C80C5F80C9097E80C0041A003C8A9
:201B4C00002605F110071040194087E8030004F12400EE770768002F50D1294603F072FB1F
:201B6C00002851D0A9F89480E87F40F08000E87789F89660607A40B1607830B10120A072B7
:201B8C0066722779A671781C20710098FEF7AEFAA06A00284BD1607860BBE079012846D077
:201BAC00FEF7A0FA0646207A00BBA86802F0EAFC224B2149E2681B68086040B93046FEF791
:201BCC0095FA04F1C800042104F082FC2FE00968D26804F1A400891AB1FBF3F105F020F883
:201BEC0004F1A40005F018F830461EE0144901200870F9E7192004F0ABFD18E004F124000B
:201C0C00294603F01FFB48B9B4F9340000F6FF706FF31F30A0866FF0010805E0A9F894801C
:201C2C00E87F40F08000E8770098FEF75FFA4046BDE8F88F90080020EC1B0020346F000008
:201C4C00F41B0020F1EFFF9F200000007FB503F039FF04F0E9FB4C4D41F2883204234B4933
:201C6C00286105F1700002F06DFD00241F200621AC6003F0FDF901208DF800000646ADF8F7
:201C8C0002406A46ADF80A4050208DF804603146ADF806004FF44870ADF808004FF47A7007
:201CAC00ADF80C0040F20530FEF798FF40F2063002210DF10202FEF791FF4FF44270192133
:201CCC0005F15502FEF78AFF40F20730072105F11C02FEF783FF4FF44470314601AAFEF703
:201CEC007DFF40F2113002210DF10602FEF776FF40F21230022102AAFEF770FF40F213303A
:201D0C0002210DF10A02FEF769FF4FF44570022103AAFEF763FF04F0BFFD0620A02103F084
:201D2C00A7F90720A02103F0A3F90820A02103F09FF90920A02103F09BF902208DF80F40A5
:201D4C000DF10E018DF80E004FF4806003F076F940F202400DF10F0103F070F904F045FE3D
:201D6C00FEF788FB04F004FC04F034FC04F03CFC04F03AFA03F0F8FC04F01BFE04F01DFE70
:201D8C0004F096FC00907FBD08020020CD6500002DE9F041424C474D8046C8F38140401E80
:201DAC0002D0401E2AD025E0284620300168880C20D24FF4804020603A48D0F802204B0AF7
:201DCC00C1F3033703F0800322F08F02134347EA0302C0F80220D0F801300E1266F3030312
:201DEC00C0F80130026801F0E70722F0E70247EA020102E04FF00041204601602A4E06F1DE
:201E0C0008000068C0F3C0070FB94020A0624FF40070206404F074FC40F0300084F8C80063
:201E2C00C8F3815038B3401E03D0401E1ED002211DE0012004F0FCF807460420394602F097
:201E4C007BFB042004F0F4F88742FAD1366826F07F4003F03FFB15480068036807214FF031
:201E6C006022300E98474FF4806020600321042002F062FB06E00420012102F05DFB0C48B3
:201E8C0003F028FB284600680B4947F6180700F03F0084F8CB0F094E0F803068BDE8F08181
:201EAC0040A00C400A600840A83F0050B4010010BD3786006C13005070B00C402C200940F2
:201ECC002DE9F0430646880FADF1140D7FD302F01FF8434D4FF000081C35C5F800803D48C6
:201EEC0045F81C0C012001F08AFB3B4804F0B6FC3C48434640F60A0200F13801438790F8E6
:201F0C004440C0F83C8090F845700A8004F0F00480F8444007F0F00444F00104B76880F857
:201F2C00454081467B803C1D00E03C1D276817B138888242F9D12160607A00F0F00060720A
:201F4C0009F1240004F098FD80680088D21F82421DD0521C82421AD006F120000788B7B192
:201F6C0096F82C2096F82D70C6F8248002F0F00286F82C2007F0F00242F0010286F82D2057
:201F8C00C9F83C00487B738400F0F0004873B068694603F097FF684604F0AAFBB06801F043
:201FAC00D2FD28680028FCD0C5F80080012004F03FF8012808D0607A00F0F00040F001004D
:201FCC006072064804F04AFCB06845F81C0C05B0BDE8F08301010E04ED050000DD4000002E
:201FEC0000100440900800202DE9F04F0C464549CA7AADF12C0D84460592487B09900D7936
:20200C0000958A7A488B4B8A0E7B91F805A091F802800492B1F846E008904A7A088B0392C8
:20202C00CD7807900A7AC88A02920F6A0690CA79888A01928A79E146A9F54079B9F11D0F00
:20204C0010D8DFE809F05B5553514F4D4B494643413F3C3A380F34312E2B2923201E1C0F0F
:20206C0019181716BCF1280F49DA604602F084FD21E0099EB246D046CDF814801DE008982A
:20208C00079007980690DDF818E005E03831086820608888A08032E070460AE0B1F844008E
:2020AC0009E0B1F8420004E0B1F8400001E091F83E00034612E0208021E005980490049822
:2020CC00039001E03231E2E7039802900298009006E0019A87310DE068310BE01846EAE724
:2020EC00009D0BE02C31D2E7276008E0583100E048311022204600F04FFF00E025700BB0DF
:20210C00BDE8F08F700500202DE9F041444C94F8E700ADF1280D00286FD1394F387B012514
:20212C000021242284F8E7507E6884F8E6000823C4F80C6101A804F03FFD002604F10C00DD
:20214C00069601ABADF814602E490796324604F02FFD2D4904F1300001AB324604F028FD8E
:20216C002A4904F1540001AB324604F021FDB868014628468847DFF89C8025487B7B0078EF
:20218C00D8F80410C1F381571BB1032F03D184F8E150032F16D0022F14D0012F26D10320CD
:2021AC001D4C009031464FF040521C23204602F0A5FA009531464FF400720923204602F057
:2021CC009DFA13E0022003F0B5F9032F0CBF4FF47A7142F21071114800685434B1FBF0F1F0
:2021EC00204604F01DFD204604F016FDD8F80000C00802D2304603F09DF90AB0BDE8F081B7
:20220C00FC6E0000BF4600007131000015350000F51B0020B03F005000A00C40346F000059
:20222C00A00C0020F8B504F093F8404E3E4F0446A00823D3B96A09B33D4600200B698A69AE
:20224C00A86204EA0300104340F0020006F1080288610B6910689843106001F1100090E857
:20226C000C0030681A1C9043306005F1300002F0E9FF022105F1C80004F02AF9B86AA10852
:20228C0015D200F110020CCA002122400B40002B08BF002A0BD0016985690C40F8622C4340
:2022AC004FF48041846107F1C80004F011F9B86A002837D107F12404204604F0DDFB051CA6
:2022CC0030D0F868E968884226D1A86802F05AF917490860E0B906F1080128690A68104374
:2022EC000860326805F1100393E80300081C1043306000233361A86846F80C0C06F110001E
:20230C0000680028FAD0204604F082F8BD62F8BD086801F02BFEF8BD07F1C8004FF480519C
:20232C0004F0D6F8F8BDC046900800200C100440EC1B00202DE9F047ADF1180D00F0DCFDFC
:20234C003A4D4FF0030908274FF6FF78002605F13E0A2C4603F05EFE20BB009601A80DF177
:20236C0006016A4603F0A3F9E0B9BDF80400102814D160789DF8061088420FD1009801884E
:20238C00884509D14088C00B08D3042005F12002014602F0A5FF01E002F01AF9009808B1CC
:2023AC0003F09AFF208A41082DD320F0010063792179208253EA010225D073B9207A637A91
:2023CC008DF8070005F132018DF808300A680DF109031A608988998001E08DF80790A07A48
:2023EC008DF80F00E37A8DF810300DF1070004F03BFA38B1636AA77023B11A6812B1196886
:20240C0038468847208A810807D320F0020020825146304601F018FA208AC1089AD320F0A2
:20242C000400208203F074FE94E7C046700500202DE9F0430646ADF11C0D04F0B5FB03F07C
:20244C0031F84FF000090546CDF8009004F084FA30F0010002D00098A84202D16FF0040042
:20246C0059E070684C4658B1B0F1FF3F05D001A903F000F830B107464CE04FF0FF3000E0B3
:20248C002046019004F08CFB0199012701EB000800E001936868019904F07EFB00282ED097
:2024AC0003A802F019FED8B99DF8100002A902F0F9FD88B9B368BDF808009DF81210059A24
:2024CC00984748B19DF81270B773BDF80800B081059B33614F4612E00599684603F086F970
:2024EC000198641CB0F1FF3FD4D00028D2D004F057FBB8EB000302D001989842C9D2009905
:20250C0005F1080003F0CAFA24B1686804F040FB641EFAD1384607B0BDE8F083F0B5ADF149
:20252C00340DFFF7F1FD304908682822082340F00200086001A8002104F04AFB2B4E2C4981
:20254C000524002301AA079406F1C80004F03CFB00213022082301A804F042FB0025FF2730
:20256C001921244AADF81C5001AB099706F14C00009504F031FB2822082301A8294604F0D1
:20258C0027FB1D4901AA2B4606F1FC00079404F01BFB3022082301A8294604F021FB012429
:2025AC001A21164AADF81C4001AB099706F16800009504F011FB12492A4606F1A400134674
:2025CC0004F0F6FA0F4804F049F9B47186F8A3507571F57135727572B5724FF6FF7075615D
:2025EC000DB0A6F8A000F0BD0020094090080020AD640000615D0000312A0000314100006A
:20260C00E95B0000692900007CB50446084601F09BFA344E02461821304603F03FF903F0F2
:20262C0023FD40F2FF32002380B22C210090304602F064F804F06CF81C210246304603F0CF
:20264C002DF903F003FD02461421304603F026F903F0A2FE02461021304603F01FF920465D
:20266C0001F09AF902460C21304603F017F9204603F07AFE1C4D400040F020002870204614
:20268C0003F07EFE40F010002870204603F02AFC02462821304603F001F9204603F088FE95
:2026AC00400040F06000E870204603F08DFEC00040F0800005F8080C204603F091FE800019
:2026CC0040F47C40A5F89300204603F0FDF802460821304603F0E2F84FF48000A5F2091158
:2026EC0008607CBD00A00C4049A10C402DE9F8430446FDF7F7FC81462D48021992F8ED10AB
:20270C00491ECFB2002F82F8ED704BD12B4D05EB84052E78698836F07F0788461AD1F109BC
:20272C0011D24FF08054D4F8B801806901464046884704F5DC742068406B01464046884775
:20274C000228F8D121E000EB8800D0F80011002088471AE04FF08054D4F8B801006A0146FB
:20276C0040468847D4F8B801806A014640468847D4F8B801006B01464046884701210D4AE8
:20278C000D48116001688908FCD306F03F003F2801D0FFF7ABFF687800F03F003F2801D04A
:2027AC00FFF7A4FF4846FDF7A1FCBDE8F883C046A00C00202820086028200840006D0000B6
:2027CC002DE9F0410646FDF78DFC2D4D8046A91991F8ED00421C002881F8ED204AD1294CC9
:2027EC0004EB8604277807F03F003F2801D0FFF7E7FF607800F03F003F2801D0FFF7E0FF57
:20280C00668837F07F001AD1F80911D24FF08054D4F8B801406901463046884704F5DC7433
:20282C002068406B0146304688470128F8D121E005EB8605D5F80011012088471AE04FF058
:20284C008054D4F8B801C069014630468847D4F8B801406A014630468847D4F8B801C06AF4
:20286C000146304688470121074A0848116001688908FCD34046FDF739FCBDE8F081C046F8
:20288C00A00C0020006D00002820086028200840294A2DE9F04180460126284816600768B7
:2028AC00002FFCD0294C2A4FC020443C206007F1080001682348890804D20168090C41F059
:2028CC00F00100E072211E4D85F85412002111638768384600F094FE40463946FFF794FE29
:2028EC001C48B038816D40F20F226FF31F418A4212D901680068C1F30363C0F3034003B121
:20290C005B1E072805D006280EBF0720801C00F00F0043EA001028703846FFF739FA0E489F
:20292C0014380068C1680220884740202060064F3E60BDE8F081C04610100940940222436A
:20294C0002600840AC3F00509404604244600C40A83F00506C130050B4010010042998B517
:20296C004DD1274C04F1240004F086F840B994F8A300400838BFE06804D3D4F8880000E075
:20298C00C068E06041681F4A09781160416812680978914206D0876927B120A20CCA6FF0B3
:2029AC00FF01B847022002F0C5FD1120FFF708FF0120E071E068011D007C10B160790128F1
:2029CC0004D00E20FFF7FCFEE168091D08680E49083007680FB947681FB10020C8610B4F32
:2029EC000F600B4A40F2FF7000271060094C8F6109484C6103F032FF192004F0C5F898BD29
:202A0C0090080020D021084000100440510007060000046002000040CD1E00000000000076
:202A2C0000000002F8B5FDF75DFB2A4C0746103CD4F89C0010F4602F2BD0D4F89C00400CD6
:202A4C00C5B2680807D2A80803D2E80828BF022502E0012500E000256E1D70B201F08CFBF5
:202A6C00D4F89C3005F111010120884023EA00013846C4F89C10FDF739FB04EB8500D0F869
:202A8C008C704FB1D4F8880013A20CCA3146B84702E03846FDF72AFBD4F89C0020B104F132
:202AAC00FC00002103F014FD94F8A30080080FD3D4F8987037B1D4F8880009A20CCA6FF060
:202ACC000101B84794F8A30000F0FD0084F8A300F8BDC046A0080020000000000000000823
:202AEC0000000000000000802DE9F0412D4C0546A41C20781F4690460E46ADF1380D01284C
:202B0C0003D0FFF70BFD012020705EB1B8F1000F6E6007D0C5F80880FDF7E4FA617819B101
:202B2C00FDF7E4FA002038E0491CC9B26170FDF7DDFA01241FB9684603F038FD6F463868DB
:202B4C0028607868E860387A2874F8686861386900B1A8610021782205F1200000F016FD13
:202B6C0005A800212422082304F042F88DF82C4005F13800002105AA04F036F805A80021FD
:202B8C002422082304F018F805490B9505F17000002205AB04F00CF828460EB0BDE8F08154
:202BAC00096A000090080020F8B503F099FE03F0A3FE044604F00C000C2845D0E0081ED2A8
:202BCC0002F0DAFE234E376805460120014603F0D8F931686943884211D21F4C8220B0FBEE
:202BEC00F7F0291A204604F01BF8204604F014F80120FEF711F9204603F0A4F925E0200988
:202C0C0022D21648610939BF016821F00101016841F0010102460160D2F898004FF08054BE
:202C2C0040F00300C2F89800D4F8B8018069014620208847D4F8B801094C806B216880472A
:202C4C0001202060206800E030BF03F04FFE00F0AFFFF8BD346F0000AC0C00208C2108406D
:202C6C002C2009402DE9F0410E46294990461C4606AF8C4672680878BB8851783F88127830
:202C8C00002502EB012242F62321521A29D0521E052A18D9921F0CD0263A34D1072F30D852
:202CAC00C7F10700984298BF83B2674407F1080121E0B84225DBC01B9842D8BF83B2238018
:202CCC00DCF804000BE0F06803F0A2FC80B2B84217DBC01B9842D8BF83B22380F068391851
:202CEC000AE0082F0DD8C7F10800984298BF83B207EB0C010F31238040461A4600F04CF99F
:202D0C0003E0072501E025800A252846BDE8F081CC0A0020264838B550380468B4F1FF3F37
:202D2C0008BF002403F038FC22481749002510380560012008601549086001F013FB14482F
:202D4C00006820B1134800682046FFF7A1FD124812490560124C0A686FF35B4244EA020058
:202D6C00086010490868C0F30130012806D10A680D48104040F400320A6008600B4908681F
:202D8C000028FCD138BDC0465C600C400822044380012843000120438C21084048200340CE
:202DAC000000390104000940FFFFFCFC0C0068426C1300509404604290B5264C0746401E69
:202DCC00ADF1240D1DD0C01E13D0401E15D0401E3CD103F0AFFD02F0A5F8401E694680B24F
:202DEC0002F04AFA90B305A940F21530FFF7FCF82CE020466E3003F041FE142002F07AFD60
:202E0C0024E04FF4417007A9FFF7EEF800218DF804109DF81D308DF803109DF81E208DF896
:202E2C0001309DF81C008DF802209DF81F108DF800009DF821308DF805109DF820208DF8DA
:202E4C00073068468DF8062003F012FC277009B090BDC0460A020020F0B520480127F84297
:202E6C0001D001F0DBFB204D204F214EBD4206D203CD0478A4003459401CA047F6E71D488A
:202E8C00002800D08047164D164FBD4202D210CDA047FAE7F0BD03251BE0416808300A1C50
:202EAC002A400BD11A1C2A40AB4305D0046804300C600431043BF9D1131C05D00478013062
:202ECC000C700131013BF9D1021C2A4001D0A84304300368002BE0D17047C046FFFFFFFFBA
:202EEC00000000000000000058750000B87500000075000059C501102DE9F84302F0F6FDF2
:202F0C00244C0025A5704FF6FF70A08202F026F81F4E01232A462070314604F1A80001F07F
:202F2C0011FC02232A4604F1CC00314601F00AFC04232A4604F1F000314601F003FC0427A6
:202F4C0004F14808102240462946E77000F01EFB04F1580910224846294600F017FB04F11D
:202F6C00200635602572072065721021A0724246E572022002F09AF9032010214A4602F056
:202F8C0095F938463246014602F090F9BDE8F8836564000070050020002A4AD05FEA000CC8
:202FAC008B071CD1830722D1102A08D370B4103A78C978C0103AFBD270BC103238D0042A52
:202FCC002CD3082A05D30C2A24BF08C908C008C908C008C908C092072AD0920F22E00B783F
:202FEC000370491C401C521E22D08B07F7D1C30714D18307D8D0121F12D308C903801B0C63
:20300C004380001D121FF8D20AE008C903701B0A43701B0A83701B0AC370001D121FF4D23F
:20302C00121D05D00B780370491C401C521EF9D160467047FEB5FEF709FE234C4FF6FF755B
:20304C000026A41E02F0D8FF002833D1009601A80DF106016A4602F013FB30BBBDF80400EF
:20306C000127102811D160789DF8061088420CD1009801888D4205D14088000905D301F078
:20308C0019FF02E003F0A4FB0746009868B167B103F0FEF809E0206903F099F8071C04D0AC
:2030AC0003F088F8384603F0DBF8206903F068FD0028F0D0A088C108C4D320F00400A080C8
:2030CC0003F038FCBEE7C0460A0200202DE9F8432020EFF3118780F31188214CA068012138
:2030EC0003F04AFD4FF001094FF0000865692168A4F81C906A1A2168A4F81E80461B401A59
:20310C00904227D387F3118840464519361A4846294603F02DFDB042F7D92021EFF31187F9
:20312C0081F31188E18B012903D14046294603F01FFDB0F1FF3F06D0A169801B814238BFF4
:20314C00081C411901E0A069291803F00DFDA4F820902560A4F81C8087F31188BDE8F88381
:20316C00780100202DE99843FCF7BCFF1F4CDFF87880814604F1E000007850B94446A06822
:20318C000146022088470746102001F023FB2FB320E000F061FE002820460FD114490968F2
:2031AC003222B2FBF1F101B9012100F13004204603F036FD204603F02FFD0FE04446002273
:2031CC00A16880F8E020022088470746102001F001FB1FB1A0680146032088474846FCF775
:2031EC0085FFBDE89883C046FC6E0000A00C0020346F000070B51F4CA568064603F084F848
:20320C004FF47A71401B4843050C02F083FC2169401A48BF404240F6B831AD19A94211D3EB
:20322C0006280FDAA268E1688A420BD8206848B1891A114A51438A0C02EB1141884288BF70
:20324C00011C08E00D49486840080ED208687D2100F0FF004143C82905D3B1F57A6F88BF0F
:20326C004FF47A6103E0C82101E04FF4FA61084670BDC046D01B002040420F00AC3F005081
:20328C00F8B5001D84B214F0030002D0241A241DA4B202F075FF01461948102C476801601A
:2032AC00C8BF8768388800221646C30BDD0319D126B984420ADD3A46012617E01388C31816
:2032CC009BB29C42138011DC174618469FB1001B80B20428B4BF3C88385344F400443C80B9
:2032EC003F1D08E080F40040002680B2C71938880028DAD10027084603F00DF93846F8BD5E
:20330C00900E0020B0B50446A768ADF1280D27BB0C20FFF7B5FF071C16D06846002124227C
:20332C00082303F049FC002306976A466168ADF810301448059303F013FC386038B903F08E
:20334C00DFF8384602F03CFA6FF0030018E0E06878602069B860A7600AE002F011FF05468B
:20336C00386802F0EFFD2069B860284603F0D3F83868616803F054FC386803F04DFC00204E
:20338C000AB0B0BDB1680000B0B514460F46FCF7A9FE85B219480068007808B902F0D4FE36
:2033AC0087B1384602F013FB40B114B14FF0FF3020700820FFF79AF9002419E03868796848
:2033CC00BA6803E04FF480700122014601F006FF0B49012008600B4908684008FCD30A483F
:2033EC0000684168022088470CB10021217004462846FCF77BFE2046B0BDC0460C6F0000D8
:20340C00A802504208800240CC010010F8B50E46044603F0F9FB0546304602F081FA071C3A
:20342C0003D1284603F0ECFB26E0F87F10F0070F1BD113487968884202D0796821667860CD
:20344C0010A090E8060004F15807284687E8060003F0D6FB04F138004FF0FF3103F09CFB11
:20346C0004F1680696E80300F8BD284603F0C8FBF87F10F0070FFBD102200021F8BDC0462C
:20348C001144000002000000000000702DE9F043ADF13C0D03F0BCFB1A4C184D00268046C8
:2034AC001C3C684600213C22082303F055FB54F8042F6868AF6806902B6808976946059299
:2034CC000F480493002203F043FB071C10D002F057FE8146384600F0E3FF48B1484603F0C4
:2034EC001AF82D1D761CDCD0404603F085FB01E001F040FA0FB0BDE8F083C046346C0000A4
:20350C00ED6600009C0E00201CB5042002F090FD022818D0032816D016480068C0F38150A1
:20352C00032814BF41F288324FF47A721248144C016854342046B2FBF1F103F071FB204600
:20354C0003F06AFB1CBD03200C4C009000214FF040521C23204601F0D1F8012000214FF44D
:20356C00007209230090204601F0C8F8022001F0C9FF1CBDB43F0050346F000000A00C4074
:20358C00A00C0020002213460A46194671B510F0030F0BD0002A82BF00F8011BB2F10102F1
:2035AC0010F0030FF6D1002A08BF71BD11F0FF0141EA0121042A18D341EA0141082A0FD31F
:2035CC000E46102A08D30C460D46B2F10F0312F00F0272C0103BFCD812F0080F18BF42C0C6
:2035EC0012F0040F18BF40F8041B12F0020F18BF20F8021B12F0010F18BF017071BD70471E
:20360C000246184808B50068C0F3046003F0D2F800EB2270401C162805DA10F10A0FB8BF76
:20362C006FF0090000E015200F49104B00F01F0040F4F85008801868800803D20C490020E9
:20364C00086001E042F040620A49D00E930E80F0010000F00100086083F0010000F0010040
:20366C00886008BDB81200506E6208400000094094042A430000204338B5054601201A4CEF
:20368C0068712879B0B902F07BFD2178002904BF6FF00704051C15D0491EC9B2217039B977
:2036AC0002F039FF606801F0BDFF0020687118E0054613E002F064FD05462078FF2805D1FD
:2036CC006FF00604284602F026FF0BE0401CC0B20128207002D1606801F0BBFF284602F0D8
:2036EC001AFF0024204638BD5C11002070B50646B079F5680628A5F108052CDA30790628F4
:20370C0029DA02F03DFD154CB27991000C3401EBC20161184968E1B102F0FDFE3079287078
:20372C00B0796870307AA870B179880000EBC1002018F1684068083002F058F8B1798800F7
:20374C0000EBC10024186068406803F021FA002070BD02F0E0FE6FF0020070BDC00E00205E
:20376C0038B519491A4C00204822C1F8F30F94F8E200C1F8FF2F20B3012817D0022807D00A
:20378C0003281ED151F8310C00F024F80B2016E051F8315C2846FDF74FFE40F2FF50A84260
:2037AC0002D8801CA842F1D2082008E051F8310C00F0F4FA054800780028E7D0052084F821
:2037CC00E400FEF7C9F838BD39400C400A6F0000A00C002038B51A4CA0F5C060D4F8B810A8
:2037EC00C4F8D4000029B8BF49420028B8BF4042814220DAB4F8BC00124D30214FF47F4208
:20380C0008230090284600F079FFB4F8C00004214FF4F80212230090284600F06FFFB4F800
:20382C00D00020214FF440620A230090284600F065FF012000E0002084F8D80038BDC04697
:20384C00A00C002000A00C402DE9FF410E460546194C7188E08A81420CDCB188814209DB5C
:20386C00F088218B884205D13089618B884208BF18271DD0052001F07FF97788B388ADF8A9
:20388C000270F288ADF804303189ADF806208046ADF80810A08AADF80000684602F0F0FFF1
:2038AC00071C05D1A57304F1F000414601F01EFB38460090BDE8FF81700500201A4898B5FE
:2038CC00D0F8781203680F0F03F0FF03802B28BF002300F0EFFE4FF0FF3478B1401E07D0AA
:2038EC00401E012802D9801E19D01AE0BFB118E0381C12D0801E14D1143311E03846401EA4
:20390C000BD0801E07D0001F03D0401E09D1163306E0152405E0142403E00A2401E00A336D
:20392C005CB2204698BDC046A0100050F8B5174A174B184C121D22F003019C4621605E1AB8
:20394C002068256860606768A660002001E025F8020BAB42FBD84FF6FC75B3102A4001EBF7
:20396C00830323F8040CACEB0202E82315403B80EC3DA1F8E850E83144F8081CFFF780FCEF
:20398C0044F8040C606844F8080CF8BDF61B0020483F00209C0E002038B504461848174D65
:2039AC00C03002686B68C2F30351C2F303405B0813D22B681D0511EB257103D41029A8BFC7
:2039CC000F2100E000211B0410EB237303D4102BA8BF0F2300E00023184640EA011002F4BD
:2039EC007F4102F0FF03222C41EA004143EA010024BF02F08042104338BDC046AC3F0050FF
:203A0C00B812005030B5401E4FF00004ADF12C0D0AD0401E04D0401E20D1FDF79DFF1DE03B
:203A2C0000F000FB044619E001A821462422082303F0C2F806940D4DADF814400949079444
:203A4C00012201AB05F1780003F0B2F8064A23462C2105F19C00009303F0BEF820460BB08B
:203A6C0030BDC046E93C00006D370000A00C002038B50546880F26D301F0F6F8124802F0BF
:203A8C00EDFE1548801C0078012803D005F1380003F07EF80D4800240460022001F032FD0C
:203AAC001120FEF723FE287C10B90E20FEF71EFE0748084A04721178447221B11470C83063
:203ACC00042102F005FD38BD692900000000046090080020F41B0020900800202DE9F041F0
:203AEC00054615F8017B90460E461CE0B8F1000F05F101050BD0FF2C09D8022015F8011BDA
:203B0C00401E41EA0424F9D101E0042C02D315F8011B00E0394630462246FFF737FDA619E9
:203B2C0001E006F8010B15F8010B8742F9D115F8014B002CE9D115F8010B2C7800022418A8
:203B4C00D4D1BDE8F08170470146184880B5983000688A0CC0F38367C0F38F2022D241F31E
:203B6C00072100290BD54A420021400805D17F0806BF0127381C4FF6FF70521EF5D1002962
:203B8C0010DD4FF6FF72400040F00100824207D2780040F001070F2F92BF01200F27101CA6
:203BAC00491EF0D140EA074080BDC046B8120050164880B507683FB315498B6803EA53007E
:203BCC00C00E21D2134A106880081DD2486880081AD21068096810F0050F4FEA114101F02F
:203BEC00F00101F5E0710AD1B9420DD2190F38BF40F00100D90E38BF40F0040003E0B9428C
:203C0C0002D920F00500106080BDC04628500940AC3F0050000009402DE9F8438146EFF3B6
:203C2C001188202080F311880125114E114CF561114F6560F86A016A14208847D9F8100085
:203C4C00810C14BF000C0420A06138680268232100209047C6F88052206820F4C02040F442
:203C6C0080302060356088F31188BDE8F883C046000024430020094084010010D0B5044605
:203C8C0002F092FF00F00CFC071C08BF6FF002041FD002F075FA0146A2880F4800232430BF
:203CAC0030F80C6F5EB902804760A26882602373786820610024084602F02DFC09E09642E4
:203CCC0008BF6FF00204F6D05B1C062BE8D300F051FE2046D0BDC0469C0E00201648144AC5
:203CEC00144908B5E4300078801E0A2807D8DFE800F01814100614100614100609C002F05B
:203D0C005FFF11E010688008FCD250688008FCD20AE008688008FCD306E008688008FCD20F
:203D2C0002E010688008FCD3FDF716FE08BDC04634600C4038600C40A00C002010B5FCF7AB
:203D4C00D1F9114C611C097829B10E490C68FCF7CDF9204610BDFCF7C9F902F013FC0DA23C
:203D6C000CCA02F091FBA26C002314001B1807A044EB010490E80600C91842EB04021046A8
:203D8C00001C10BD0430044090080020000000127A00000000093D0000000000134910B50B
:203DAC000A684BF2F5214843040AC2F38140012806D101F0AFFE00F039FF604304EB9054E7
:203DCC000C4901F1E500007830B90948006820F07F402418640802E0002081F8E50006486C
:203DEC000460210C41600123836010BDB43F005010200940A00C00203C600C40B0B5044692
:203E0C0002F0AAFD30F0010008BF6FF004041ED002F0CAFE054602F0B3F901460D48062259
:203E2C00303030F80C7F6FB1A388BB4208D1406800680022854208BF0122A260002403E056
:203E4C00521EEED14FF0FF34084602F064FB2046B0BDC046900E002008B5012002F0E8F8CF
:203E6C0001281DD00F4834210122002300F024FE002808BF002014D00B48006801F086FEF9
:203E8C0002F042FA0A4A93681168D060C01A074BA1EB91014343180C884228BF011C1160BD
:203EAC00012008BD00A00C408000001040420F00D01B0020B0B5144D28680004070C21D09A
:203ECC0001F028FE114991F90720824205DD10F1800FB8BF6FF07F00C8718C88BC4210D8F6
:203EEC000A68D5F8D40F801A801C1F2888BF1F203F1B4008C7404FF6FF70E719B84238BF43
:203F0C00071C8F80B0BDC04634100940E41B002098B5134C0C342068011D4068406810B1A1
:203F2C0080472168091D08680830016809B94768A7B10C4A1C321768002FFCD00023136071
:203F4C0029B1084680472068001D00680830406800B180470448503801F0A4FF98BDC0463E
:203F6C00900800200010044051000706F8B50746FCF7B8F8124C06462079E0B1401EC0B28A
:203F8C002071C0B904F1C800082102F0A1FA97B1E068703001F0D6FFE0680A4DC0683F1A82
:203FAC00286804F1A405B7FBF0F1284602F038FE284602F031FE3046FCF798F8F8BDC0465B
:203FCC0090080020346F00001549096821280ADC212819D00C380FD00D380FD0001F0FD005
:203FEC00C01E0FD01AE0253810D0001F10D0401E10D0401E10D011E00868704748687047C7
:20400C0088687047C8687047086970474869704788697047C8697047086A704700207047E6
:20402C00F001002038B5134D95F8E100002410B91148007860B1FCF755F895F8E3100029F0
:20404C0006BF012185F8E3100124FCF74FF80CB1002038BD022001F06DFA0E20FEF7B0FB84
:20406C0001F066FE01280EBF0120002085F8E20038BDC046A00C00200A6F0000012838B5F3
:20408C001ED1012001F0D4FF01281BD002F054F90D4D0E480122322305F1E00100680A700C
:2040AC00B3FBF0F404B914463035284601F04AFF2846214602F0B4FD284602F0ADFD01E0DB
:2040CC0001F072F8002038BDA00C0020346F0000084610B500F0005100F00400084317D07B
:2040EC00012001F0A5FF0E4C01280CD0094909686C3432222046B2FBF1F102F091FD20460D
:20410C0002F08AFD10BD044802F0A8FB0348046010BDC046346F0000ED0500000010044001
:20412C00C808002038B51248104C0168114D0C40E1430160A10908D34068800905D328464C
:20414C004FF40051C83002F0C3F914F4602F0BD0284600F19C010A6804F46024FC3014433A
:20416C000C60002102F0B4F938BDC04620000E00081004409008002098B50446FBF7B2FF90
:20418C008446104890F8A310C90803D390F8A210A14213D0B0F8A0300B4F012202FA04F129
:2041AC001943A0F8A010391D0B6804F10C07BA4093430B600F680FB9002101706046FBF7DA
:2041CC0095FF98BD9008002008100440B0B504AF3F8815460C46002F18BF0B201DD1207893
:2041EC00022817D16068417800784FF6F17700EB012087420CD10120084F188038684068F1
:20420C008047E1680870E068007828700020B0BD0A2000E0012000211980B0BD2C0F002078
:20422C00DCB5044602F0C0FC01F03CF9064602F093FB30F0010014BF002E6FF0040017D08B
:20424C00606858B1B0F1FF3F05D0694601F012F930B107460BE04FF0FF3000E0002000900B
:20426C007068009902F098FC002700B901273846DCBDFEE7F8B5114C6678E578182001F0C9
:20428C00C1FD071C19D00421002202F0CBF9304601F005FD38727D720020B87204F14806BC
:2042AC00FE6004F158033B6104F120027A6101F0B9FD034A394600F06DFDF8BD700500209F
:2042CC002D6A00002DE9F04104461148401C90F8008016460D46102001F094FD071C12D087
:2042EC000421072202F09EF9404601F0D8FC38727C72BD72FE6001F095FD044A394600F02B
:20430C0049FDBDE8F0810420BDE8F081576A000070050020F8B5044602F046FC00F0C0F8D2
:20432C00071C19D001F02CFF84460D480021243030F80C6F6EB94FF6F872028047600025EE
:20434C00856021717868A060604602F0E4F82846F8BD491C0629EBD300F00CFBF8BDC0465F
:20436C009C0E00200F4908680028FCD1104A131D0D49186820F0030001430C480068C0086F
:20438C000CD2106810F0030F0AD041F003001860106800F003000328FAD101E041F00101AE
:2043AC00196070470C00684204000020B03F005000400340F8B516460C46FBF793FE0246FF
:2043CC000F484178832554B1641E02D0641E10D00DE08179012904D0B0F8A01005E0876A4B
:2043EC000FB9802506E0806A818B318002E0032500E031701046FBF779FE2846F8BDC04644
:20440C00900800202DE998430446276E9946904607B1B8470020022100EA090001EA080172
:20442C00002808BF00290BD104F1580090E8060008EA010109EA0200002808BF002907D0D9
:20444C0004F1680080E8000304F1380002F0A0FBBDE89883F8B50446A1686068ADF104069E
:20446C000025086002F0C4FA46F8040F002808BF6FF003000FD06D1CF4D0074D6E460027F6
:20448C0056F8040B55F8041BA368044A01F06AFB7F1CF5D00020F8BD306F00004F54000021
:2044AC002DE9F843804601F06BFE0F4C03250026814654F80C7F5FB93046C4F80080014627
:2044CC00A6600A4602F040FB606018B900F052FA474501D1264601E06D1EEAD1484602F00F
:2044EC001AF83046BDE8F8839C0E0020B0B5054602F05AFB044602F02FFA30F0010008BFFA
:20450C006FF0040414D001F03BFE0A4A002132F80C7F4FB153681B689C4204BF2971002453
:20452C0004D0491C0629F2D36FF0040401F0F3FF2046B0BDC00E00207CB5114D04460E460A
:20454C00600807D3B0B20021009001220B46284600F0D4F8A00807D3B0B2009000210222A3
:20456C000123284600F0CAF8E00807D3B0B2009000210C220223284600F0C0F87CBDC0466E
:20458C0000A00C4038B50546287B00F00F00022818D10D4C2078012814D0FFF7CFFBA96867
:2045AC006FF070458908A1EB900085420ADDB0F1704FBCBF05490844E168C96801F57A71B0
:2045CC00814200DB002038BD90080020F6FFFF1F10B50178A23902D02E391AD010BD41798E
:2045EC00132918D100890C4C01280AD12046F038817B022905D1F03002F040FA01F000FEDF
:20460C0010BD052000F0B8FA0146204600F06EFC10BDFCF76DF910BD60060020F8B5064681
:20462C000F4D104F7388002417E0A00000EBC400321851689068D26852B9AF420BD00A78C0
:20464C0055F822200346491C08461946904701E0FEF7A2FC7388641CA4B2A342E5DCF8BDED
:20466C00007500000C750000F8B506AF3F880D460646E7B9022B18D15078147804EB002453
:20468C0034F001000FD1E9680968304602F008F8844208BF00200BD0E968096830462246B7
:2046AC0001F0D4F9F8BD8020F8BD0D20F8BD0B20F8BD7047104A1068C0F30F314BF69A10FD
:2046CC00884207D111680B20B0EB117F14BF0020042070472430884208BF01200BD04BF66D
:2046EC004130884208BF032005D0213888420CBF02204FF0FF30704718130050B0B500EBB4
:20470C004100102B04AF00F5007403D3103B00F50174120C3D889D4045EA024502F0E0F86A
:20472C00002700B90127064A394610680028FCD025600120106009B102F0D8F8B0BDC04625
:20474C0000800C40F0B50D4614461F460646ADF1240D002124220823684602F02DFA002036
:20476C000590ADF8100008484FF47A71A2B26B4600680697B1FBF0F080B229464243304633
:20478C0002F016FA09B0F0BD346F000038B501F0C7FFFCF739FF4FF08055D5F8D8010C4C21
:2047AC00036801210A4620469847D5F8D801426801212046904701F05DF9FEF767FE00F08B
:2047CC003BF900F08DFA02F0BBF9002038BDC0460040034070B5104C0646204602F0E4F8DD
:2047EC000025B0B9204602F043F90446A06806420AD0E0682269002103463046984705463A
:20480C00012D08BF012005D0204602F033F9041CECD1284670BDC046A00C00200F4A014633
:20482C001068ADF1080D08B9002010600846801E12D0801E10D0401E07D001208DF80100C8
:20484C009DF801000028FBD106E001208DF800009DF800000028FBD102B070471002002012
:20486C000E48B0B54578848A0E2001F0CBFA071C11D004210A2201F0D5FE284601F00FFA41
:20488C0038727C811320387301F0CCFA044A394600F080FAB0BD0420B0BDC0467005002000
:2048AC00516A00002DE9F04102F062F80D4D2B688046A3B105F194060024012707FA04F0C6
:2048CC0018EA000F07D056F8240020B1026812B1214690472B68641CE4B29C42EED3BDE849
:2048EC00F081C046F81900200C4885460C4885446F4607208743BD460A486F4607600A485F
:20490C00002803D07946491D8E460047FEF7A4FA01F0AEFD02F010F9FEE7C046483F002094
:20492C00000400000C100020896900002DE9F04104460E48057890460E46102001F062FA2E
:20494C00071C10D03246042101F06CFE284601F0A6F93872FC6001F065FA3946424600F005
:20496C0019FABDE8F0810420BDE8F0817105002000BF704708B5FFF7FBFFFEE738B50546F2
:20498C00094800688047094C201D006810B1014628468847206800B18047054800688047D0
:2049AC00FFF7E8FF38BDC046641100206C11002068110020D0B504463C20FEF761FC071CA8
:2049CC0014D000213C22082302F0C6F8207AB86160893862E068386160683946002202F01B
:2049EC00B7F80646384600F0EBFE16B96FF00300D0BD0020D0BDFEE70E480EB5F0388178CF
:204A0C00062916D1B0F84010ADF80210B0F84230ADF80430B0F84420ADF80620B0F84610FD
:204A2C00ADF80810CC3002F029F801206946FEF70BFF0EBD6006002000B500213C2208231F
:204A4C00ADF13C0D684602F087F8094800F5B27107914FF4DC7108910321069105490023EE
:204A6C006A4600F58A7002F063F80FB000BDC0467005002041230000F8B504460D48143033
:204A8C00006845880679102001F0BCF9071C0DD00221152201F0D4FE3D81BE72FC6001F028
:204AAC00C1F9034A394600F075F9F8BD0420F8BD1568000008020020F8B51E4614460D1841
:204ACC00102E02D3103EAD1C240C01F009FF002700B9012707483B460768002FFCD02D8880
:204AEC00012101600BB101F001FF2C403441A0B2F8BDC04600800C400E4938B5CA68824286
:204B0C0010D1487801280DD1FBF7ECFA0546084801F0C8F904462846FBF7E8FA04F0FF003D
:204B2C00012802D06FF07F0038BD4FFAA4F038BD01000304900800202DE9F041044698469A
:204B4C0016460D460E2001F05DF9071C10D0812038700123FB70BC803D817E81A7F80C8026
:204B6C0001F060F9069A394600F014F9BDE8F0810420BDE8F08170473EB505460020ADF8B9
:204B8C0004000A2001F03EF9041C0DD00421312201F048FD258101F045F901A90223044A16
:204BAC000091214600F014F9BDF804003EBDC046396A0000F8B5044616460D46142001F0CC
:204BCC0021F9071C0FD00421022201F039FEBC60BD811020B8733E6101F024F9034A39460E
:204BEC0000F0D8F8F8BD0420F8BDC046F967000070B50446606810F07F4F18BF6FF00200B8
:204C0C0011D101F0BDFA084D0646287828B1686800F008FD606800F01CFD60686860304648
:204C2C0001F079FC002070BD5C1100200D4938B5D1F8EC3209681B3800FB00F409060A161C
:204C4C0043F3072100FB01F519066043091661434243891201EBE50101EBA24000EB234066
:204C6C0038BDC046A41000500C49086820F0020040F4007008600A48032140F8041C41F245
:204C8C0030018160012101605022826001604FF4CA628260016040F80C1C70470000046091
:204CAC000C410440F0B5044605AFADF10C0D03B9084B97E860008DE86000FCF70FFF011C1C
:204CCC0044BF05A003C802D42046FEF79FFB03B0F0BDC0461144000000000000000000804F
:204CEC0000B500213C220823ADF13C0D684601F033FF084800F1E40107914FF42171089165
:204D0C0001210691044900236A46943001F010FF0FB000BD080200204130000038B504469C
:204D2C00FBF7E0F905460B48401C007868B1204601F0B8F804462846FBF7D8F904F0FF0498
:204D4C00012C0CBF8120022038BD2846FBF7CEF9012038BD90080020B0B504460D46102070
:204D6C0001F050F8071C10D02146062201F068FD0020388115247C81054AFA6001F052F813
:204D8C0039462A4600F006F8B0BD0420B0BDC046480200201CB51446CA78012A02D18A883F
:204DAC000A4B1A8000F064FD30B9002000906946204601F004F918B101F0B8F9044603E073
:204DCC000098447801F07CFA20461CBD5011002038B51C46154600F04BFDB0B90020009051
:204DEC006946284601F0EBF878B90099487848B90846C1798C4205D10146049889682246C3
:204E0C00FEF7CAF8009801F05BFA38BDF8B5044616460D46142000F0F5FF071C0ED001211B
:204E2C00142201F00DFD3C72FD603E820420B87400F0F8FF024A3946FFF7ACFFF8BDC0460C
:204E4C000768000010B504460B4802680023D90750080143D007801A4FF47A729941FCF7FF
:204E6C00F1F9002908BFB0F1004F28BF6FF000406060002010BDC046346F000010B5044671
:204E8C006078162804D16088082100F083FC30B1217904F1080001F0BFF9012010BD01206B
:204EAC0000F028FD024813300460002010BDC0460902002038B50C4C641E606990B1E17898
:204ECC000830491CE170FFF7D7FD0546162D09D0042D07D060694088002100F05BFC284638
:204EEC0000F008FD38BDC0460902002038B50D46044601F0CBFD10B1204601F023F80848C5
:204F0C0000684FF47A71B1FBF0F080B205FB00F1204601F085FE204601F07EFE38BDC04698
:204F2C00346F00001CB500208DF80400082000F069FF041C0CD00121182201F081FC00F012
:204F4C0071FF01A90123044A00912146FFF740FF9DF804001CBDC046316800001CB500208A
:204F6C008DF80400082000F04DFF041C0CD00121122201F065FC00F055FF01A90123044A34
:204F8C0000912146FFF724FF9DF804001CBDC0463F680000F8B505460B48173804780E466B
:204FAC000A2000F02FFF071C0CD02946324601F047FC204600F073FE387200F033FF394671
:204FCC0000F056FCF8BDC046200200202DE9B0430F46044601F058FD04F1280292E80003FC
:204FEC004B464246FCF72EF905460B462A464046494601F049FA17B1303484E80300284614
:20500C00BDE8B08398B50146886840F6030320271A46521C02E040687F1EFFB260B15FB1DE
:20502C000488A34218BFA242F5D1C9681CC820311CC189C881E8890098BD7047B0B5044631
:20504C000D46102000F0DEFE071C0DD00421362201F0E8FA3C8101207881FD6000F0E2FEA1
:20506C00024A3946FFF796FEB0BDC0461B6A000070B505460E460C2000F0C4FE041C0CD039
:20508C000421302201F0CEFA2581668100F0CAFE034A2146FFF77EFE70BD042070BDC046E5
:2050AC00456A0000024680B5062A0CDA094F900000EBC20007F10C02175A13181FB14FF656
:2050CC00F870B84202D14FF0FF3080BD18880880002080BDC00E002010B5044601F064FD10
:2050EC0000F0E0F9002808BF6FF004000DD0083000F0F4FAA06038B110F8081C217110F8E7
:20510C00070CA071002010BD022010BD10B5044600212C220823ADF1300D684601F022FC42
:20512C00E0200890A168606800236A4601F0FCFC002818BF002001D1FFF71CFC0CB010BDB6
:20514C0010B5044600212C220823ADF1300D684601F008FCE068A1680890606800236A4698
:20516C0001F0E2FC002818BF002001D1FFF702FC0CB010BD10B5044601F002F8094B002276
:20518C00014633F80C0F30B1A04208BFD4B203D0521C062AF5D3FF24084601F0BCF92046B0
:2051AC0010BDC046C00E002010B503200021FFF7C3F9012000F03CFF18B10648006800F0AC
:2051CC00E5FC01F0A1F8044C083C606000F0A2FC206110BD80000010D81B00200B4B10B56A
:2051EC0014331C68C1F30F2102F00F02C0F38710090440EA022024F480641C602404240C7E
:20520C000C431C600143596010BDC0460080024038B5FAF767FF05460948E030007838B1D4
:20522C0006480024342101222346FFF745FC00B101242846FAF75AFF204638BD00A00C4003
:20524C00A00C0020F8B5064637680D4600242C601FB9FAF747FF374608E0FAF743FF00E054
:20526C003F6839680029FBD1BD4201D03D600124FAF73CFF2046F8BD70B505460E46102018
:20528C0000F0C0FD041C0CD00121192201F0D8FA2581E66000F0C6FD034A2146FFF77AFD79
:2052AC0070BD042070BDC04623680000F8B5044616460D46102000F0A5FD071C0CD0052146
:2052CC00012201F0AFF93C727D72FE6000F0AAFD024A3946FFF75EFDF8BDC046636A0000D0
:2052EC00F8B5044616460D46102000F08BFD071C0CD00521022201F095F93C727D72FE6091
:20530C0000F090FD024A3946FFF744FDF8BDC046696A000038B505460C2000F073FD041C90
:20532C000DD02946002201F08BFA4FF0FF30A06000F078FD034A2146FFF72CFD38BD0420BE
:20534C0038BDC04617570000F8B5044616460D460C2000F057FD071C0DD02A46042101F03C
:20536C0061F93C810520B87200F05CFD39463246FFF710FDF8BD0420F8BDF8B50446164697
:20538C000D46102000F03EFD071C0DD02A46042101F048F9BC600020F86000F043FD394649
:2053AC003246FFF7F7FCF8BD0420F8BD1078802811D1508840F27F6181420CD190883F21DE
:2053CC00B1EBA02F07D1C0F3C211042903D100F07F00834201D000207047012070471078BB
:2053EC00802811D1508840F27F6181420CD190883F21B1EBA02F07D1C0F3C211052903D14A
:20540C0000F07F00834201D0002070470120704770B5044604F128020CCA0846002101F008
:20542C0033F804F1300292E860002D1846EB0106290C3004014300F0DDF8383484E860000D
:20544C0070BD10B5401E14460DD0401E09D0801E05D0001F01D0FFF78DFA052004E0002079
:20546C0002E0042000E00220226821469047002010BDFEE70A4A10B512680C464FF47A716B
:20548C000023A1FB0001FBF7DDFE002908BFB0F1004F2EBF6FF002002060002010BDC046D2
:2054AC00346F000038B5054600F06AFE084C03220146243C54F80C0F18B1A84202D0521E31
:2054CC00F8D10024084601F026F8204638BDC046C00E00200949020480B5120C41F8082C0F
:2054EC00C0F3074041F8040C0120086004480768002FFCD00020086080BDC04644600C4063
:20550C0084088C4310B50446FAF7ECFD084BE21892F8E810491EC9B282F8E81021B99A683C
:20552C000121A1408A439A60FAF7E0FD10BDC046A00C002038B50446FAF7D4FD084A02F1EA
:20554C0008031D680121A14012192943196092F8E810491C82F8E810FAF7C8FD38BDC04692
:20556C00A00C002010B501F04FFB01F051FB032001F0D6FA06481030006830B1034C2046A6
:20558C0001F040F8204601F03AF810BD09660000A401002008B501F0F7F9012801D0FFF7BE
:2055AC002AFA074801F0B8FA00F0E6FB01F0B0FA01F0AAFA01F0A4FA01F09EFA08BDC046E5
:2055CC0071550000084910B5002008600120C861064CA062A16A206005480068016A1420DE
:2055EC008847A06A10BDC0460000244304200940B001001010B50C4600F086FE211AB1F1F6
:20560C00004F08D8011B091DC90F05D1001DA04288BF041C00E0041D01481830046010BD36
:20562C000020094038B5044601250DE0C0F11F0005FA00F1052881EA040403DB401FFDF71A
:20564C0055F801E0FFF75EFFB4FA84F02028EDD138BD38B5044601250DE0C0F11F0005FA87
:20566C0000F1052881EA040403DB401FFDF7A8F801E0FFF75FFFB4FA84F02028EDD138BD6A
:20568C007FB50646082014460D46ADF800000920ADF80200684600F093FBBDF8041031808E
:2056AC009DF8061029700299216000907FBD7FB50646082014460D46ADF800000920ADF8EA
:2056CC000200684600F07CFBBDF8041031809DF8061029700299216000907FBD98B504466A
:2056EC0000F04EFD2168002908BF002709D00F4657F80C2C2260002347F80C3CFF2401F8C6
:20570C00024C00F008FF384698BD1078911D802810D1508840F27F6383420BD190880328D6
:20572C0018BF042806D1097831F0100014BF1129012000D000207047BCB50C7806AF022C24
:20574C000FD14C686578247804EB052442F60215A54204D13C880094FEF786FFBCBD0A2098
:20576C00BCBD0120BCBDFEE710B50C2000F04AFB041C0BD00121042201F062F804480C30E9
:20578C00A06000F04FFB214600F072F810BDC0462002002038B50546074800780C4600F0AC
:2057AC007EFAC2B205482946234600904FF61840FFF7C2F938BDC04609020020E769000078
:2057CC0010B5044600F0DCFC074934F8042C6FF3DF3224F8042C4A680860241F944238BF51
:2057EC004C6000F098FE10BD900E002038B50C46054600F0C5FC002144F80C1C296811B9C5
:20580C002C6006E0114651F80C2C002AFAD141F80C4C00F080FE38BD10B5044660680C3036
:20582C0080B2FDF72DFD50B1A18800230181FF22036000F10C0182721846A16010BD6FF03C
:20584C00030010BD38B50546FFF746FC041C0DD128796946FFF726FC28B1A86800F024FD9C
:20586C006FF0050038BDBDF80000A880204638BD00B5ADF1140D8DF8040003910822ADF82B
:20588C000020ADF802201020ADF8060002208DF80800684600F094FA05B000BDB0B515462D
:2058AC000C1801F01DF8002700B90127054A394610680028FCD025600120106009B101F0AF
:2058CC0015F8B0BD00800C40202838BF07480CD307480C30016808038215920500F47C105C
:2058EC0001F00F01104340EA0130704700803F408C13005010B5094C04F11301096861B1A2
:20590C0020B101F10800097900F086FC641E606900F0BEFC00206061E07010BD090200209E
:20592C00094902460823C87F30F07F0005D0B1F91C00824208BF081C04D05B1E01F1200106
:20594C00F1D100207047C046C0090020B0B504460D46082000F056FA071C0BD08120387002
:20596C000123FB70BC8000F05DFA39462A46FFF711FAB0BD0420B0BD38B52020EFF3118576
:20598C0080F31188064CA068002101F0F5F86169081AA169814238BF002085F3118838BDC0
:2059AC007801002010B50C46ADF1180D02900821ADF8001019216846ADF802104FF0FF31EA
:2059CC00019100F0FDF90499216006B010BD02464FF0FF307AB1116819B140290BD3890BA3
:2059EC0009D1516819B10B0A05D0090E03D191680F2998BF0020704770B515460C460646EC
:205A0C0000F0EFF9011C03D1284600F035FC70BD8D60304601F06CF814B1204601F0B8F871
:205A2C0070BD80B5107802AF80280DD1508840F27F61814208D19088834205D13878917946
:205A4C00884208BF012000D0002080BD70B515460E46044600F0D6F848B94FF6FF70314653
:205A6C0000F0D0F8002808BF112002D004808570002070BD084A00210320134643F80C1F55
:205A8C00401E9960FAD130320620401E22F80C1BFBD100F0A3BAC0469C0E002098B50F4626
:205AAC00044600F06DFB57B13A4600E00A4652F80C1C0029FAD1216842F80C1C276000F0B8
:205ACC002AFD98BD0EB50820ADF800000120ADF80200684600F074F903499DF8040048703E
:205AEC000298C8600EBDC046080200200EB50820ADF800000120ADF80200684600F060F98E
:205B0C0003499DF8040048700298C8610EBDC046700500200748816841F31002064991F95C
:205B2C0000100068A0F5407041430811121A803210127047285009400C13005038B5FAF73A
:205B4C00D1FA074C054694F8E000012804D1FEF783F9002084F8E0002846FAF7C7FA38BD64
:205B6C00A00C002010B5044610460A46211C14BF0028022006D0C8608A6003480B6100F0AF
:205B8C0069F8002010BDC046A00C002070B5054600F0A6FE002400B90124054E30680028C0
:205BAC00FCD0A847012030600CB100F09FFE70BD00800C4008B5FAF795FA064A117880B2E2
:205BCC0029B90549096800230B7001231370FAF78DFA08BD741100200C6F000010B5084C5D
:205BEC0006492069814202D100F0CCFC606104F1C800042100F06CFC10BDC0466929000013
:205C0C0090080020034608460749097849B1021F084632F8041F8B4208BF101C02D0401EB2
:205C2C00F7D100207047C0467005002008B5283090E80C0005A003C8FBF704FB002908BF34
:205C4C00B0F1FF3F88BF4FF0FF3008BD00000000907E000038B50D46044600F005FF002132
:205C6C002A462346116059685160596801B921460A605A60FAF73AFA38BD38B505460A20DA
:205C8C0000F0C0F8041C09D00121152200F0D8FD258100F0C7F82146FFF7EAFD38BD0EB5E8
:205CAC008DF806005021ADF8001068460021ADF8021000F085F8002814BFFF209DF807007E
:205CCC000EBD0EB50820ADF800002020ADF802001020ADF80400684600F072F8002814BF9A
:205CEC00002002980EBD7047074810B50468FEF7E1FC04F07F04012804D100F011FB02286F
:205D0C0008BF641C204610BD4413005038B50D46044600F097F8024604480C30016822B141
:205D2C00148095704068FFF767FE38BD0802002006490868002818BF012005D1044B402038
:205D4C00012218600020CA617047C04604800C402C500C4008B500F0FBFA00F0804100F0B9
:205D6C000200084305D003484FF00051C83000F0AFFB08BD90080020074808B51030006857
:205D8C0028B1034800F03EFC024800F038FC08BD315F0000C5640000A4010020074810B5E4
:205DAC001030006830B1044C204600F02BFC204600F025FC10BDC046834B0000A4010020A4
:205DCC0010B50446208800F05DF838B1816811B12046884710BD6FF0010010BD4FF0FF308A
:205DEC0010BD0EB50820ADF800000420ADF802000C2001906846FFF7E3FF002814BF002011
:205E0C0002980EBD0EB501900821ADF8001068460221ADF80210FFF7D3FF002814BF002074
:205E2C0002980EBD0EB50820ADF800001A20ADF802006846FFF7C4FF002814BFFF209DF86A
:205E4C0004000EBD0EB50820ADF800000420ADF8020001906846FFF7B3FF002814BF00200A
:205E6C0002980EBD08B542882D2A28BF6FF0010004D203490C3151F82210884708BDC04618
:205E8C00406C000008B5FFF775F9FF2808BF002004D0034B810001EBC001581808BDC04690
:205EAC00CC0E0020064A014610680028FCD10023D3611160D0690028FCD0D3615068704740
:205ECC0000100440064802680A6082684A60C2688A60406B20F0784040F08050C860704746
:205EEC004C130050202838BF002008D304480C300068C10C01F44071C0F3845008437047C1
:205F0C008C13005006490822C87F30F07F0008BF081C04D0521E01F12001F5D10020704748
:205F2C00C009002010B5064C206900F0DDFD0146A06800B9E160A068401CA06010BDC04682
:205F4C00A4010020002181820449C0684969814203D10348006800F05FBE7047780100207E
:205F6C00386F000010B50446E088FFF703F9FF2808BF4FF0FF3003D0A0712046FDF7B6FBBA
:205F8C0010BD02294FF0000204D0012808BF4FF47A7203E0012808BF40F2EE2210467047A7
:205FAC001078802809D1508840F27F61814204D19088834208BF012000D00020704738B5F0
:205FCC000D460446FFF77DFE002818BF6FF0040003D120462946FFF7E5FC38BD054808215A
:205FEC001C38A0F84C1002494165FDF79FBCC046715E00009C0E00200EB50820ADF80000DE
:20600C000A20ADF802004FF0FF3001906846FFF7D7FE0EBD0EB50820ADF800000A20ADF801
:20602C0002004FF0FF3001906846FFF7C9FE0EBD042807BF4FF0C0421D234FF080521C235A
:20604C0001483421FEF738BD00A00C400548BC3001680348084001F07C4108437047C046D5
:20606C00FCFCFC00B81200500549983108680968C0F3870001F0030140EA01207047C046D7
:20608C00B8120050002948BF0021044A02EB8000026861F3050202607047C0460010084092
:2060AC000348016803480160034800F011BAC046E0200240E0200260581A0020054A0C32A5
:2060CC001268824218BF032002D10846FEF726BE7047C04690080020054A0C321268824242
:2060EC0018BF032002D10846FEF718BE7047C0469008002010B5F9F7F5FF84B200F024F84E
:20610C002046F9F7F3FF014810BDC0460C6F00000548E2380078401E03D0401E03D100F062
:20612C006FB8FEF769BC70476006002050B110F1040F08BF042006D010F1030F0CBF0220FF
:20614C00012070470020704705490A68107828B90120107048680068FCF732BB7047C04605
:20616C000C6F000008B50548034A41680120106048698969884708BD04200940E40100205E
:20618C0010B500F045FD80B260F30F04F9F7AAFF80B260F31F44204610BD1CB504466068CD
:2061AC006946FFF767F920B9009860602046FDF7A9F81CBD01460888401E04D0401E05D18C
:2061CC00887800F0ABBB8878FCF7F6BD704710B5044600F085FC844204D0846800F04CF8C6
:2061EC00204610BD002010BD0449887818B90248486200F045BC70472002002070050020E2
:20620C000448801C0078062818BF072801D1FEF727BB70477005002010B504460348036824
:20622C001BB10A4601202146984710BD5811002008B5406810F07F4F18BF6FF0020002D13B
:20624C00FFF7F0F9002008BD08B5406810F07F4F18BF6FF0020002D1FFF7FBF9002008BD61
:20626C000EB501900821ADF8001068460521ADF80210FFF7A5FD0EBD0EB501900821ADF8D0
:20628C00001068460521ADF80210FFF799FD0EBD0EB501900821ADF8001068460321ADF857
:2062AC000210FFF78DFD0EBD0EB501900821ADF8001068460321ADF80210FFF781FD0EBD7B
:2062CC000EB501900821ADF8001068460321ADF80210FFF775FD0EBD0EB501900821ADF8A2
:2062EC00001068460321ADF80210FFF769FD0EBD10B50446A088FCF7C3FF0028A06014BFEB
:20630C0000206FF0030010BD04480168436802688A42FAD1080440EA134070470820094010
:20632C00044884380068C0F302400428C8BF4FF0FF3070471813005008B503200121FEF7A2
:20634C00FBF8FFF7E1FF0149086008BDD81B0020044910310868C3430B600A681042FBD1DF
:20636C007047C04600100440222804D303480068C0F30070704701207047C0468C13005085
:20638C00222804D303480068C0F34070704701207047C0468C1300500448B830006800F4A6
:2063AC007C010004000C08437047C046B8120050202805D303480C300068C0F30150704758
:2063CC00002070478C130050222804D303480068C0F3C060704700207047C0468C130050C1
:2063EC00222804D303480068C0F34550704700207047C0468C130050044908B591F8E60079
:20640C0018B1D1F80C0100B1804708BDA00C002038B50546F9F766FE2C680CB121682960D9
:20642C00F9F764FE204638BD10B5044C00213434204600F051FB204610BDC0460802002000
:20644C00012814BF002140F2FF71024A002011607047C04600000460044B03F110010A888D
:20646C0010430880D86900F093BBC046700500200449B1F1FF3F07BF0020011C0868091D55
:20648C00FEF784B9FFFFFFFF30B502FB01F403FB00444FF00005E2FB00542146284630BD72
:2064AC0008B500F065FA01460248001F006800F0E7F808BDA008002004498868401E8860CD
:2064CC0003D10869C96800F003BB7047A40100202022EFF3118382F31188426A11434162A7
:2064EC0083F3118800F0F0BA034804490068814201D0FEF7BEBF704798CA011070472820B8
:20650C0008B50820ADF800000C20ADF802006846FFF756FC08BD08B50090BDF80200F9F763
:20652C00E5FDBDF8000000F067FB08BD08B5406820B10068FFF706FD002008BD6FF00200C4
:20654C0008BDADF1080D01208DF800009DF800000028FBD102B0704710B50446FFF71EFC00
:20656C00032000F0DDFA204600F0E6FA10BD00000248034A1321FEF71DBBC046700B0020E9
:20658C00C86E0000034A1168506813688B42FAD17047C0460820094008B5FEF78BF818B9F4
:2065AC00FDF78CF9162800DAFEE708BD034910B51CC91CC006C980E8060010BD986E0000B2
:2065CC00034B191D0A8810430880D86800F0E0BA080200200248034A0421FEF7EBBAC0466E
:2065EC00300F0020DC6E0000024803491438091F0860704748020020300F002070470349F1
:20660C00086070470149091F08607047681100204FF0FF31421E12F8010F491C0028FAD1E4
:20662C0008467047812342EAC112037042F47C4282800023C370704708B500F041FA0248FE
:20664C00006800F041FA08BD8401002008B50846FFF766F9002814BF8068002008BD00B554
:20666C000921ADF1240D684600F026FA09B000BD024902680A60406848607047DB0A0020B6
:20668C00024A08B51268904708BDC046A0080020024A00200821FEF749B9C046336A0000D2
:2066AC0008B5FFF7AFFA002814BF8078002008BD024942F22F00FFF749B9C046EF69000096
:2066CC0010B504466068FCF795FDA060002010BD02490968416000207047C046346F000088
:2066EC000246024808B5904708BDC046406C0000014602481022FCF74FBCC04618000021F1
:20670C0002480068C0F3C1407047C0468C1300500248C4300068C0F30D007047B812005024
:20672C0002480149086070478C0800202948000002490878401CC0B2087070470802002083
:20674C0010B500F0A3F9002400B10124204610BD102802D3014910380860704700EF00E022
